:100000000C942A000C9447000C9447000C94470071
:100010000C9447000C9447000C9447000C94470044
:100020000C9447000C9447000C9447000C94470034
:100030000C9447000C9447000C9447000C94470024
:100040000C9447000C9447000C9447000C94470014
:100050000C94470011241FBECFE5D8E0DEBFCDBF12
:1000600011E0A0E6B0E0E4EBFDE002C005900D92E7
:10007000A434B107D9F721E0A4E4B1E001C01D9296
:10008000A535B207E1F70E946A030C94D8060C94D8
:100090000000A898A09A80EA8A95F1F7A09894E1C8
:1000A0009A95F1F783B39CE89A95F1F781700895DA
:1000B000A898A09A00008111A09884E18A95F1F790
:1000C000A0980895A898A09A0000A09884E08A9526
:1000D000F1F700C083B39FE09A95F1F7817008951E
:1000E000CF93DF93D82FC8E08D2F81700E945800E6
:1000F000D695C150C9F7DF91CF910895CF93DF9383
:10010000C8E0D0E00E94620020E8829FC001112474
:10011000D695D82BC150B1F78D2FDF91CF9108958F
:10012000CF93F8940E9449008CEC0E94700084E404
:100130000E9470000E9462008823E1F30E9449003F
:100140008CEC0E9470008EEB0E9470000E947E007A
:10015000C82F0E947E007894682F70E0762F662763
:100160006C0F711D882777FD8095982F0E948C0554
:1001700020E030E040E85DE30E941C06CF91089546
:100180008BEF82BB82E08A95F1F700C0849909C0A9
:1001900061E080E00E940A0480E690E00E9444044E
:1001A0000895859909C061E080E00E940A0488E60C
:1001B00090E00E9444040895869908C061E080E0C0
:1001C0000E940A0480E790E00E94440408958FEFA3
:1001D00088BB2FEF84E39CE0215080409040E1F702
:1001E00000C000008DEF88BB2FEF87E893E121501E
:1001F00080409040E1F700C000008FEF88BB2FEFF8
:1002000084E39CE0215080409040E1F700C0000072
:100210008EEF88BB2FE789EA93E021508040904021
:10022000E1F700C000008CEF88BB2FEF84E39CE077
:10023000215080409040E1F700C000008EEF88BB65
:100240002FEF80E792E0215080409040E1F700C01E
:1002500000008FEF88BB2FE789EA93E021508040B0
:100260009040E1F700C000008DEF88BB2FEF8EE9D2
:1002700094E2215080409040E1F700C000008FEFF1
:1002800088BB2FEF81EE94E0215080409040E1F751
:1002900000C0000008958FE788BB2FE788E391E056
:1002A000215080409040E1F700C000008BE788BB00
:1002B0002FEF89E698E1215080409040E1F700C09F
:1002C00000008FE788BB2FE788E391E02150804052
:1002D0009040E1F700C000008FE588BB2FEF80E77A
:1002E00092E0215080409040E1F700C000008FE490
:1002F00088BB2FEF8DE399E4215080409040E1F7D7
:1003000000C000008FE588BB2FEF8DE399E42150FA
:1003100080409040E1F700C000008FE788BB2FE7E6
:1003200088E391E0215080409040E1F700C0000058
:1003300087E788BB2FEF8DE399E421508040904000
:10034000E1F700C000008FE788BB089587EF82BB0C
:1003500022E02A95F1F700C084991CC00E94200475
:1003600060E080E00E940A0488E790E00E94440474
:100370008FE798E321E0815090402040E1F700C0F2
:1003800000000E944B010E94200488E890E00E9437
:100390004404089585991CC061E080E00E940A042D
:1003A00088E990E00E9444048FEF90E722E08150BA
:1003B00090402040E1F700C000000E94200460E06F
:1003C00080E00E940A0488E890E00E9444040895B6
:1003D00086991FC00E94200460E080E00E940A0409
:1003E00087EA90E00E9444048FEF88BB8FEF90E78C
:1003F00022E0815090402040E1F700C000000E94C0
:10040000200460E080E00E940A0488E890E00E94F6
:10041000440408958FE388BB2FEF81EE94E02150D0
:1004200080409040E1F700C000008FE788BB08954E
:10043000CF92DF92EF92FF920F931F93CF93DF93B0
:10044000CDB7DEB7C85CD1090FB6F894DEBF0FBEDA
:10045000CDBF8FE788BB0E9420040E9490008C01D2
:10046000BC01882777FD8095982F0E948C0520E09D
:1004700032EC43E856E40E948C0420E030E040E493
:1004800050E40E94F10420E030E048EC51E40E9486
:100490008D046B017C014AE0BE016F5F7F4FC80194
:1004A0000E94A306C701B6010E945905DC01CB01D9
:1004B0004AE0BE016B597F4F0E94A30686EB90E095
:1004C0000E94440460E087E00E940A04CE018B5938
:1004D0009F4F0E94440460E08AE00E940A048EEB71
:1004E00090E00E9444042FE788E391E0215080408F
:1004F0009040E1F700C000000E94200420E030E0BE
:1005000046EE52E4C701B6010E94180688230CF497
:10051000A4CF0E94200480EC90E00E9444042FEFBE
:1005200082E597E0215080409040E1F700C0000054
:100530008FEF88BBC853DF4F0FB6F894DEBF0FBEF6
:10054000CDBFDF91CF911F910F91FF90EF90DF9082
:10055000CF900895CF93DF938EEF82BB82E08A9590
:10056000F1F700C0849929C061E080E00E940A048C
:1005700088EC90E00E9444040E9418020E9420042B
:1005800060E080E00E940A0480ED90E00E94440454
:1005900061E080E00E940A0488EC90E00E9444043C
:1005A0000E94E7000E940A020E9418020E94200492
:1005B00088E890E00E9444043AC085992EC061E02A
:1005C00080E00E940A0480EE90E00E9444040E94B1
:1005D0001802C2E0D0E00E94200460E080E00E94A7
:1005E0000A0480ED90E00E94440461E080E00E94F3
:1005F0000A0480EE90E00E9444040E94E7000E94FA
:100600000A020E9418022197209729F70E942004CD
:1006100088E890E00E9444040AC0869908C061E01E
:1006200080E00E940A0488EE90E00E944404DF917A
:10063000CF910895CF93DF938DEF82BB82E08A95AF
:10064000F1F700C084992EC061E080E00E940A04A6
:1006500080EF90E00E9444040E941802C4E0D0E0C1
:100660000E94200460E080E00E940A0480ED90E097
:100670000E94440461E080E00E940A0480EF90E060
:100680000E9444040E94E7000E940A020E9418028D
:100690002197209729F70E94200488E890E00E9483
:1006A000440415C0859909C061E080E00E940A04F5
:1006B00088EF90E00E9444040AC0869908C061E077
:1006C00080E00E940A0480E091E00E944404DF91EF
:1006D000CF9108958FEF8ABB87BB18BA8FE081BB9B
:1006E00080EF82BB8FE788BB8CE00E94540460E0FF
:1006F00080E00E940A0488E091E00E94440461E0E6
:1007000080E00E940A0489E191E00E9444042FEFF6
:1007100082E597E0215080409040E1F700C0000062
:100720000E94200460E080E00E940A0481E291E0DF
:100730000E94440461E080E00E940A0481E391E0A9
:100740000E9444042FE788E391E0215080409040CC
:10075000E1F700C00000C0EFC2BB80B3809354013A
:10076000803FD1F30E94AA020E941A030E94C00097
:100770000E94A601F1CFDE9A0000DE980895CF9383
:10078000DF93D82F662311F0DC9A01C0DC98DD9846
:100790008AB38F608ABBCBB3C07F8D2F82958F7059
:1007A0008C2B8BBB0E94BB03DF70DC2BDBBB0E945E
:1007B000BB03CF60CBBBDF91CF910895882311F0AD
:1007C000DC9A01C0DC98DD9A8AB3807F8ABBDE9A0E
:1007D000000099B3DE980000DE9A000089B392957C
:1007E000907F8F70DE98892B089580E00E94DE0351
:1007F0008823DCF300C000C080E00E94DE0308957F
:10080000CF93C82F0E94F50360E08C2F0E94BF0396
:10081000CF910895611104C080580E94000408958A
:10082000613021F480540E9400040895623021F464
:100830008C560E94000408958C520E940004089572
:1008400081E00E9400040895CF93C82F0E94F50311
:10085000CA30A1F4843148F090EC980F943138F00C
:1008600084518C3230F484E505C080E403C084E117
:1008700001C080E080580E94000404C061E08C2F19
:100880000E94BF03CF910895CF93DF93EC0121968F
:10089000FC018081882329F00E9424048991811120
:1008A000FBCFDF91CF910895CF93C82F8AB38F6785
:1008B0008ABB8FE99FE00197F1F700C00000D99A49
:1008C000D89A0E94BB0381EE94E00197F1F700C033
:1008D00000000E94BB0395E19A95F1F700000E9489
:1008E000BB0385E18A95F1F70000D8980E94BB030D
:1008F00095E19A95F1F7000088E20E94000488E0F3
:100900000E9400040E94200486E00E9400048C2FB4
:100910000E940004CF9108955058BB27AA270ED0FB
:100920004DC13ED130F043D120F031F49F3F11F45E
:100930001EF433C10EF4E095E7FB29C1E92F4FD136
:1009400080F3BA17620773078407950718F071F4EC
:100950009EF567C10EF4E0950B2EBA2FA02D0B016A
:10096000B90190010C01CA01A0011124FF27591BF4
:1009700099F0593F50F4503E68F11A16F040A22FFA
:10098000232F342F4427585FF3CF4695379527956B
:10099000A795F0405395C9F77EF41F16BA0B620B6A
:1009A000730B840BBAF09150A1F0FF0FBB1F661FB1
:1009B000771F881FC2F70EC0BA0F621F731F841FF4
:1009C00048F4879577956795B795F7959E3F08F01A
:1009D000B3CF9395880F08F09927EE0F97958795D9
:1009E00008950CD0EBC0E3D040F0DAD030F021F421
:1009F0005F3F19F0CCC0511115C1CFC0F0D098F3B2
:100A00009923C9F35523B1F3951B550BBB27AA278F
:100A100062177307840738F09F5F5F4F220F331F01
:100A2000441FAA1FA9F333D00E2E3AF0E0E830D0CD
:100A300091505040E695001CCAF729D0FE2F27D0D0
:100A4000660F771F881FBB1F261737074807AB079E
:100A5000B0E809F0BB0B802DBF01FF2793585F4F13
:100A60002AF09E3F510568F092C0DCC05F3FECF376
:100A7000983EDCF3869577956795B795F7959F5FD8
:100A8000C9F7880F911D9695879597F90895E1E02C
:100A9000660F771F881FBB1F621773078407BA078B
:100AA00020F0621B730B840BBA0BEE1F88F7E095E6
:100AB000089504D06894B111B5C0089598D088F015
:100AC0009F5790F0B92F9927B751A0F0D1F0660F3A
:100AD000771F881F991F1AF0BA95C9F712C0B13055
:100AE00081F09FD0B1E008959CC0672F782F8827B0
:100AF000B85F39F0B93FCCF3869577956795B39594
:100B0000D9F73EF490958095709561957F4F8F4F02
:100B10009F4F0895E89409C097FB3EF49095809507
:100B2000709561957F4F8F4F9F4F9923A9F0F92FB3
:100B300096E9BB279395F695879577956795B79531
:100B4000F111F8CFFAF4BB0F11F460FF1BC06F5F17
:100B50007F4F8F4F9F4F16C0882311F096E911C029
:100B6000772321F09EE8872F762F05C0662371F04A
:100B700096E8862F70E060E02AF09A95660F771F5E
:100B8000881FDAF7880F9695879597F9089597F952
:100B90009F6780E870E060E008959FEF80EC089523
:100BA00000240A941616170618060906089500244C
:100BB0000A9412161306140605060895092E0394C6
:100BC000000C11F4882352F0BB0F40F4BF2B11F43A
:100BD00060FF04C06F5F7F4F8F4F9F4F089557FD99
:100BE0009058440F551F59F05F3F71F04795880F9B
:100BF00097FB991F61F09F3F79F087950895121632
:100C000013061406551FF2CF4695F1DF08C01616DD
:100C100017061806991FF1CF86957105610508948E
:100C20000895E894BB2766277727CB0197F90895A5
:100C300066D008F48FEF08950BD0C0CFB1DF28F055
:100C4000B6DF18F0952309F0A2CFA7CF1124EACF81
:100C5000C6DFA0F3959FD1F3950F50E0551F629F1B
:100C6000F001729FBB27F00DB11D639FAA27F00D05
:100C7000B11DAA1F649F6627B00DA11D661F829F2C
:100C80002227B00DA11D621F739FB00DA11D621F11
:100C9000839FA00D611D221F749F3327A00D611D2E
:100CA000231F849F600D211D822F762F6A2F112410
:100CB0009F5750408AF0E1F088234AF0EE0FFF1F63
:100CC000BB1F661F771F881F91505040A9F79E3F9A
:100CD000510570F05CCFA6CF5F3FECF3983EDCF39C
:100CE000869577956795B795F795E7959F5FC1F7D7
:100CF000FE2B880F911D9695879597F90895990F6A
:100D00000008550FAA0BE0E8FEEF16161706E807D5
:100D1000F907C0F012161306E407F50798F0621BF6
:100D2000730B840B950B39F40A2661F0232B242BCB
:100D3000252B21F408950A2609F4A140A6958FEFEA
:100D4000811D811D0895BB274A3031F4992322F477
:100D5000BDE2909581959F4F0C94AF06BB27FB0198
:100D60005527AA27880F991FAA1FA41710F0A41BA4
:100D700083955051B9F7A05DAA3308F0A95DA193FE
:100D8000009779F7B111B1931192CB010C94C80679
:100D9000DC01FC01672F71917723E1F7329704C0E2
:100DA0007C916D9370836291AE17BF07C8F308956D
:040DB000F894FFCFE5
:100DB40037206B6F6B69730038206B6F6B6973003E
:100DC40039206B6F6B6973004D6978696E672073A6
:100DD400746172742E2E2E004E756D626572206FD2
:100DE40066206B6F6B69730030206B6F6B697320C7
:100DF40063616E6E6F74004D616368696E65207324
:100E0400746F7065640054656D703A2D2000430062
:100E140054656D70206F6B0031206B6F6B697300CC
:100E24004D616B696E67206B6F6B69732E2E2E009C
:100E340032206B6F6B69730033206B6F6B697300C7
:100E440034206B6F6B69730035206B6F6B697300B3
:100E540036206B6F6B69730057656C636F6D65202B
:100E6400746F206B6F6B6973006D616368696E6585
:100E74000050757420696E6772656469656E747379
:100E8400005072657373202A20666F722073746138
:040E94007274000074
:00000001FF
