:100000000C942A000C9447000C9447000C94470071
:100010000C9447000C9447000C9447000C94470044
:100020000C9447000C9447000C9447000C94470034
:100030000C9447000C9447000C9447000C94470024
:100040000C9447000C9447000C9447000C94470014
:100050000C94470011241FBECFE5D8E0DEBFCDBF12
:1000600011E0A0E6B0E0EEE5FCE002C005900D92E4
:10007000A430B107D9F721E0A4E0B1E001C01D929E
:10008000A531B207E1F70E94AB020C942D060C9447
:100090000000A898A09A80EA8A95F1F7A09894E1C8
:1000A0009A95F1F783B39CE89A95F1F781700895DA
:1000B000A898A09A00008111A09884E18A95F1F790
:1000C000A0980895A898A09A0000A09884E08A9526
:1000D000F1F700C083B39FE09A95F1F7817008951E
:1000E000CF93DF93D82FC8E08D2F81700E945800E6
:1000F000D695C150C9F7DF91CF910895CF93DF9383
:10010000C8E0D0E00E94620020E8829FC001112474
:10011000D695D82BC150B1F78D2FDF91CF9108958F
:10012000CF93F8940E9449008CEC0E94700084E404
:100130000E9470000E9462008823E1F30E9449003F
:100140008CEC0E9470008EEB0E9470000E947E007A
:10015000C82F0E947E007894682F70E0762F662763
:100160006C0F711D882777FD8095982F0E94E10400
:1001700020E030E040E85DE30E947105CF910895F2
:100180008BEF82BB82E08A95F1F700C0849909C0A9
:1001900061E080E00E945F0380E690E00E949903A6
:1001A0000895859909C061E080E00E945F0388E6B8
:1001B00090E00E9499030895869908C061E080E06C
:1001C0000E945F0380E790E00E94990308958FEFFB
:1001D00088BB2FEF84E39CE0215080409040E1F702
:1001E00000C000008DEF88BB2FEF87E893E121501E
:1001F00080409040E1F700C000008FEF88BB2FEFF8
:1002000084E39CE0215080409040E1F700C0000072
:100210008EEF88BB2FE789EA93E021508040904021
:10022000E1F700C000008CEF88BB2FEF84E39CE077
:10023000215080409040E1F700C000008EEF88BB65
:100240002FEF80E792E0215080409040E1F700C01E
:1002500000008FEF88BB2FE789EA93E021508040B0
:100260009040E1F700C000008DEF88BB2FEF8EE9D2
:1002700094E2215080409040E1F700C000008FEFF1
:1002800088BB2FEF81EE94E0215080409040E1F751
:1002900000C0000008958FE388BB2FEF81EE94E04B
:1002A000215080409040E1F700C000008FE788BBFC
:1002B0000895CF92DF92EF92FF920F931F93CF9307
:1002C000DF93CDB7DEB7C85CD1090FB6F894DEBFB7
:1002D0000FBECDBF8FE788BB0E9475030E949000C0
:1002E0008C01BC01882777FD8095982F0E94E1043E
:1002F00020E032EC43E856E40E94E10320E030E0E5
:1003000040E450E40E94460420E030E048EC51E430
:100310000E94E2036B017C014AE0BE016F5F7F4FE8
:10032000C8010E94F805C701B6010E94AE04DC01B5
:10033000CB014AE0BE016B597F4F0E94F80588E768
:1003400090E00E94990360E087E00E945F03CE0185
:100350008B599F4F0E94990360E08AE00E945F03DF
:1003600080E890E00E9499032FE788E391E0215014
:1003700080409040E1F700C000000E94750320E03B
:1003800030E046EE52E4C701B6010E946D058823B5
:100390000CF4A4CF0E94750382E890E00E949903B8
:1003A0002FEF82E597E0215080409040E1F700C0B8
:1003B00000008FEF88BBC853DF4F0FB6F894DEBF45
:1003C0000FBECDBFDF91CF911F910F91FF90EF90A6
:1003D000DF90CF900895CF93DF938EEF82BB82E0C2
:1003E0008A95F1F700C0849929C061E080E00E94FD
:1003F0005F038AE890E00E9499030E9459010E94DD
:10040000750360E080E00E945F0382E990E00E9453
:10041000990361E080E00E945F038AE890E00E9417
:1004200099030E94E7000E944B010E9459010E941B
:10043000750382EA90E00E9499033AC085992EC024
:1004400061E080E00E945F0382EB90E00E949903EC
:100450000E945901C2E0D0E00E94750360E080E094
:100460000E945F0382E990E00E94990361E080E0CE
:100470000E945F0382EB90E00E9499030E94E700D4
:100480000E944B010E9459012197209729F70E9451
:10049000750382EA90E00E9499030AC0869908C019
:1004A00061E080E00E945F038AEB90E00E94990384
:1004B000DF91CF910895CF93DF938DEF82BB82E0E0
:1004C0008A95F1F700C084992EC061E080E00E9417
:1004D0005F0382EC90E00E9499030E945901C4E0FE
:1004E000D0E00E94750360E080E00E945F0382E933
:1004F00090E00E94990361E080E00E945F0382EC3B
:1005000090E00E9499030E94E7000E944B010E9424
:1005100059012197209729F70E94750382EA90E0FC
:100520000E94990315C0859909C061E080E00E948E
:100530005F038AEC90E00E9499030AC0869908C084
:1005400061E080E00E945F0382ED90E00E949903E9
:10055000DF91CF9108958FEF8ABB87BB18BA8FE0E8
:1005600081BB80EF82BB8FE788BB8CE00E94A90330
:1005700060E080E00E945F038AED90E00E949903B2
:1005800061E080E00E945F038BEE90E00E9499039F
:100590002FEF82E597E0215080409040E1F700C0C6
:1005A00000000E94750360E080E00E945F0383EF1B
:1005B00090E00E9499032FEF8DE399E42150804051
:1005C0009040E1F700C000000E94750360E080E009
:1005D0000E945F032FE788E391E021508040904024
:1005E000E1F700C000002FE788E391E02150804050
:1005F0009040E1F700C000000E94750382EA90E09D
:100600000E949903C0EFC2BB80B380931401803F66
:10061000D1F30E94EB010E945B020E94C000F3CF65
:10062000DE9A0000DE980895CF93DF93D82F6623DB
:1006300011F0DC9A01C0DC98DD988AB38F608ABB28
:10064000CBB3C07F8D2F82958F708C2B8BBB0E947C
:100650001003DF70DC2BDBBB0E941003CF60CBBB31
:10066000DF91CF910895882311F0DC9A01C0DC98C6
:10067000DD9A8AB3807F8ABBDE9A000099B3DE9848
:100680000000DE9A000089B39295907F8F70DE980B
:10069000892B089580E00E9433038823DCF300C097
:1006A00000C080E00E9433030895CF93C82F0E94BA
:1006B0004A0360E08C2F0E941403CF9108956111CA
:1006C00004C080580E9455030895613021F480547D
:1006D0000E9455030895623021F48C560E94550300
:1006E00008958C520E945503089581E00E9455039D
:1006F0000895CF93C82F0E944A03CA30A1F48431D1
:1007000048F090EC980F943138F084518C3230F4EA
:1007100084E505C080E403C084E101C080E0805826
:100720000E94550304C061E08C2F0E941403CF91F6
:100730000895CF93DF93EC012196FC0180818823FB
:1007400029F00E94790389918111FBCFDF91CF912C
:100750000895CF93C82F8AB38F678ABB8FE99FE034
:100760000197F1F700C00000D99AD89A0E941003AF
:1007700081EE94E00197F1F700C000000E941003A1
:1007800095E19A95F1F700000E94100385E18A95A2
:10079000F1F70000D8980E94100395E19A95F1F7BF
:1007A000000088E20E94550388E00E9455030E94E1
:1007B000750386E00E9455038C2F0E945503CF914C
:1007C00008955058BB27AA270ED04DC13ED130F016
:1007D00043D120F031F49F3F11F41EF433C10EF4E5
:1007E000E095E7FB29C1E92F4FD180F3BA176207E3
:1007F00073078407950718F071F49EF567C10EF42E
:10080000E0950B2EBA2FA02D0B01B90190010C0120
:10081000CA01A0011124FF27591B99F0593F50F438
:10082000503E68F11A16F040A22F232F342F442790
:10083000585FF3CF469537952795A795F040539588
:10084000C9F77EF41F16BA0B620B730B840BBAF058
:100850009150A1F0FF0FBB1F661F771F881FC2F7C3
:100860000EC0BA0F621F731F841F48F487957795D7
:100870006795B795F7959E3F08F0B3CF9395880F8E
:1008800008F09927EE0F9795879508950CD0EBC047
:10089000E3D040F0DAD030F021F45F3F19F0CCC063
:1008A000511115C1CFC0F0D098F39923C9F3552346
:1008B000B1F3951B550BBB27AA2762177307840753
:1008C00038F09F5F5F4F220F331F441FAA1FA9F309
:1008D00033D00E2E3AF0E0E830D091505040E695FB
:1008E000001CCAF729D0FE2F27D0660F771F881F5C
:1008F000BB1F261737074807AB07B0E809F0BB0B4B
:10090000802DBF01FF2793585F4F2AF09E3F51056E
:1009100068F092C0DCC05F3FECF3983EDCF3869554
:1009200077956795B795F7959F5FC9F7880F911DE4
:100930009695879597F90895E1E0660F771F881FD0
:10094000BB1F621773078407BA0720F0621B730B83
:10095000840BBA0BEE1F88F7E095089504D06894D5
:10096000B111B5C0089598D088F09F5790F0B92F75
:100970009927B751A0F0D1F0660F771F881F991FF4
:100980001AF0BA95C9F712C0B13081F09FD0B1E02A
:1009900008959CC0672F782F8827B85F39F0B93F3A
:1009A000CCF3869577956795B395D9F73EF49095F6
:1009B0008095709561957F4F8F4F9F4F0895E89474
:1009C00009C097FB3EF490958095709561957F4F97
:1009D0008F4F9F4F9923A9F0F92F96E9BB27939545
:1009E000F695879577956795B795F111F8CFFAF455
:1009F000BB0F11F460FF1BC06F5F7F4F8F4F9F4F86
:100A000016C0882311F096E911C0772321F09EE8E3
:100A1000872F762F05C0662371F096E8862F70E049
:100A200060E02AF09A95660F771F881FDAF7880F23
:100A30009695879597F9089597F99F6780E870E0F4
:100A400060E008959FEF80EC089500240A94161644
:100A5000170618060906089500240A9412161306AC
:100A6000140605060895092E0394000C11F488233A
:100A700052F0BB0F40F4BF2B11F460FF04C06F5F56
:100A80007F4F8F4F9F4F089557FD9058440F551F2C
:100A900059F05F3F71F04795880F97FB991F61F000
:100AA0009F3F79F087950895121613061406551F77
:100AB000F2CF4695F1DF08C0161617061806991FE3
:100AC000F1CF86957105610508940895E894BB27D8
:100AD00066277727CB0197F9089566D008F48FEF42
:100AE00008950BD0C0CFB1DF28F0B6DF18F0952302
:100AF00009F0A2CFA7CF1124EACFC6DFA0F3959FBC
:100B0000D1F3950F50E0551F629FF001729FBB27F4
:100B1000F00DB11D639FAA27F00DB11DAA1F649FA0
:100B20006627B00DA11D661F829F2227B00DA11D53
:100B3000621F739FB00DA11D621F839FA00D611DD9
:100B4000221F749F3327A00D611D231F849F600DFA
:100B5000211D822F762F6A2F11249F5750408AF033
:100B6000E1F088234AF0EE0FFF1FBB1F661F771FBF
:100B7000881F91505040A9F79E3F510570F05CCFFF
:100B8000A6CF5F3FECF3983EDCF3869577956795AB
:100B9000B795F795E7959F5FC1F7FE2B880F911DDD
:100BA0009695879597F90895990F0008550FAA0B08
:100BB000E0E8FEEF16161706E807F907C0F0121670
:100BC0001306E407F50798F0621B730B840B950B73
:100BD00039F40A2661F0232B242B252B21F40895C8
:100BE0000A2609F4A140A6958FEF811D811D089565
:100BF000BB274A3031F4992322F4BDE290958195C8
:100C00009F4F0C940406BB27FB015527AA27880F8A
:100C1000991FAA1FA41710F0A41B83955051B9F770
:100C2000A05DAA3308F0A95DA193009779F7B111EF
:100C3000B1931192CB010C941D06DC01FC01672FCE
:100C400071917723E1F7329704C07C916D937083A3
:100C50006291AE17BF07C8F30895F894FFCF37200D
:100C60006B6F6B69730038206B6F6B697300392091
:100C70006B6F6B69730054656D703A2D20004300F3
:100C800054656D70206F6B0031206B6F6B69730062
:100C90004D616B696E67206B6F6B69732E2E2E0032
:100CA0004E756D626572206F66206B6F6B697300A5
:100CB00032206B6F6B69730033206B6F6B6973004D
:100CC00034206B6F6B69730035206B6F6B69730039
:100CD00036206B6F6B69730057656C636F6D6520B1
:100CE000746F206B6F6B6973006D616368696E650B
:100CF0000050757420696E6772656469656E7473FF
:100D00000000FFFFFFFFFFFFFFFFFFFFFFFFFFFFF1
:00000001FF
